{
  "_format": "hh-sol-artifact-1",
  "contractName": "EduControl",
  "sourceName": "contracts/EduControl.sol",
  "abi": [
    {
      "inputs": [],
      "name": "AccessControlBadConfirmation",
      "type": "error"
    },
    {
      "inputs": [
        {
          "internalType": "address",
          "name": "account",
          "type": "address"
        },
        {
          "internalType": "bytes32",
          "name": "neededRole",
          "type": "bytes32"
        }
      ],
      "name": "AccessControlUnauthorizedAccount",
      "type": "error"
    },
    {
      "inputs": [
        {
          "internalType": "address",
          "name": "implementation",
          "type": "address"
        }
      ],
      "name": "BeaconInvalidImplementation",
      "type": "error"
    },
    {
      "inputs": [],
      "name": "InvalidInitialization",
      "type": "error"
    },
    {
      "inputs": [],
      "name": "NotInitializing",
      "type": "error"
    },
    {
      "anonymous": false,
      "inputs": [
        {
          "indexed": false,
          "internalType": "uint64",
          "name": "version",
          "type": "uint64"
        }
      ],
      "name": "Initialized",
      "type": "event"
    },
    {
      "anonymous": false,
      "inputs": [
        {
          "indexed": true,
          "internalType": "address",
          "name": "owner",
          "type": "address"
        },
        {
          "indexed": true,
          "internalType": "address",
          "name": "contractAddress",
          "type": "address"
        }
      ],
      "name": "NewEduNftCreated",
      "type": "event"
    },
    {
      "anonymous": false,
      "inputs": [
        {
          "indexed": true,
          "internalType": "bytes32",
          "name": "role",
          "type": "bytes32"
        },
        {
          "indexed": true,
          "internalType": "bytes32",
          "name": "previousAdminRole",
          "type": "bytes32"
        },
        {
          "indexed": true,
          "internalType": "bytes32",
          "name": "newAdminRole",
          "type": "bytes32"
        }
      ],
      "name": "RoleAdminChanged",
      "type": "event"
    },
    {
      "anonymous": false,
      "inputs": [
        {
          "indexed": true,
          "internalType": "bytes32",
          "name": "role",
          "type": "bytes32"
        },
        {
          "indexed": true,
          "internalType": "address",
          "name": "account",
          "type": "address"
        },
        {
          "indexed": true,
          "internalType": "address",
          "name": "sender",
          "type": "address"
        }
      ],
      "name": "RoleGranted",
      "type": "event"
    },
    {
      "anonymous": false,
      "inputs": [
        {
          "indexed": true,
          "internalType": "bytes32",
          "name": "role",
          "type": "bytes32"
        },
        {
          "indexed": true,
          "internalType": "address",
          "name": "account",
          "type": "address"
        },
        {
          "indexed": true,
          "internalType": "address",
          "name": "sender",
          "type": "address"
        }
      ],
      "name": "RoleRevoked",
      "type": "event"
    },
    {
      "anonymous": false,
      "inputs": [
        {
          "indexed": true,
          "internalType": "address",
          "name": "implementation",
          "type": "address"
        }
      ],
      "name": "Upgraded",
      "type": "event"
    },
    {
      "inputs": [],
      "name": "DEFAULT_ADMIN_ROLE",
      "outputs": [
        {
          "internalType": "bytes32",
          "name": "",
          "type": "bytes32"
        }
      ],
      "stateMutability": "view",
      "type": "function"
    },
    {
      "inputs": [
        {
          "internalType": "address",
          "name": "owner",
          "type": "address"
        },
        {
          "internalType": "string",
          "name": "name",
          "type": "string"
        },
        {
          "internalType": "string",
          "name": "symbol",
          "type": "string"
        }
      ],
      "name": "createEduNft",
      "outputs": [
        {
          "internalType": "contract EduNFT",
          "name": "",
          "type": "address"
        }
      ],
      "stateMutability": "nonpayable",
      "type": "function"
    },
    {
      "inputs": [
        {
          "internalType": "bytes32",
          "name": "role",
          "type": "bytes32"
        }
      ],
      "name": "getRoleAdmin",
      "outputs": [
        {
          "internalType": "bytes32",
          "name": "",
          "type": "bytes32"
        }
      ],
      "stateMutability": "view",
      "type": "function"
    },
    {
      "inputs": [
        {
          "internalType": "bytes32",
          "name": "role",
          "type": "bytes32"
        },
        {
          "internalType": "address",
          "name": "account",
          "type": "address"
        }
      ],
      "name": "grantRole",
      "outputs": [],
      "stateMutability": "nonpayable",
      "type": "function"
    },
    {
      "inputs": [
        {
          "internalType": "bytes32",
          "name": "role",
          "type": "bytes32"
        },
        {
          "internalType": "address",
          "name": "account",
          "type": "address"
        }
      ],
      "name": "hasRole",
      "outputs": [
        {
          "internalType": "bool",
          "name": "",
          "type": "bool"
        }
      ],
      "stateMutability": "view",
      "type": "function"
    },
    {
      "inputs": [],
      "name": "implementation",
      "outputs": [
        {
          "internalType": "address",
          "name": "",
          "type": "address"
        }
      ],
      "stateMutability": "view",
      "type": "function"
    },
    {
      "inputs": [
        {
          "internalType": "address",
          "name": "admin",
          "type": "address"
        },
        {
          "internalType": "contract EduNFT",
          "name": "implementation_",
          "type": "address"
        }
      ],
      "name": "initialize",
      "outputs": [],
      "stateMutability": "nonpayable",
      "type": "function"
    },
    {
      "inputs": [
        {
          "internalType": "bytes32",
          "name": "role",
          "type": "bytes32"
        },
        {
          "internalType": "address",
          "name": "callerConfirmation",
          "type": "address"
        }
      ],
      "name": "renounceRole",
      "outputs": [],
      "stateMutability": "nonpayable",
      "type": "function"
    },
    {
      "inputs": [
        {
          "internalType": "bytes32",
          "name": "role",
          "type": "bytes32"
        },
        {
          "internalType": "address",
          "name": "account",
          "type": "address"
        }
      ],
      "name": "revokeRole",
      "outputs": [],
      "stateMutability": "nonpayable",
      "type": "function"
    },
    {
      "inputs": [
        {
          "internalType": "bytes4",
          "name": "interfaceId",
          "type": "bytes4"
        }
      ],
      "name": "supportsInterface",
      "outputs": [
        {
          "internalType": "bool",
          "name": "",
          "type": "bool"
        }
      ],
      "stateMutability": "view",
      "type": "function"
    },
    {
      "inputs": [
        {
          "internalType": "contract EduNFT",
          "name": "newImpl",
          "type": "address"
        }
      ],
      "name": "upgradeTo",
      "outputs": [],
      "stateMutability": "nonpayable",
      "type": "function"
    }
  ],
  "bytecode": "0x6080604052348015600f57600080fd5b50611b7c8061001f6000396000f3fe608060405234801561001057600080fd5b50600436106100a95760003560e01c8063485cc95511610071578063485cc955146101625780634b968c731461017e5780635c60da1b146101ae57806391d14854146101cc578063a217fddf146101fc578063d547741f1461021a576100a9565b806301ffc9a7146100ae578063248a9ca3146100de5780632f2ff15d1461010e57806336568abe1461012a5780633659cfe614610146575b600080fd5b6100c860048036038101906100c39190610c26565b610236565b6040516100d59190610c6e565b60405180910390f35b6100f860048036038101906100f39190610cbf565b6102b0565b6040516101059190610cfb565b60405180910390f35b61012860048036038101906101239190610d74565b6102de565b005b610144600480360381019061013f9190610d74565b610300565b005b610160600480360381019061015b9190610df2565b61037b565b005b61017c60048036038101906101779190610e1f565b61047b565b005b61019860048036038101906101939190610ec4565b610660565b6040516101a59190610fb8565b60405180910390f35b6101b6610774565b6040516101c39190610fe2565b60405180910390f35b6101e660048036038101906101e19190610d74565b6107ac565b6040516101f39190610c6e565b60405180910390f35b610204610825565b6040516102119190610cfb565b60405180910390f35b610234600480360381019061022f9190610d74565b61082c565b005b60007f7965db0b000000000000000000000000000000000000000000000000000000007bffffffffffffffffffffffffffffffffffffffffffffffffffffffff1916827bffffffffffffffffffffffffffffffffffffffffffffffffffffffff191614806102a957506102a88261084e565b5b9050919050565b6000806102bb6108b8565b905080600001600084815260200190815260200160002060010154915050919050565b6102e7826102b0565b6102f0816108e0565b6102fa83836108f4565b50505050565b6103086109f5565b73ffffffffffffffffffffffffffffffffffffffff168173ffffffffffffffffffffffffffffffffffffffff161461036c576040517f6697b23200000000000000000000000000000000000000000000000000000000815260040160405180910390fd5b61037682826109fd565b505050565b6000801b610388816108e0565b60008273ffffffffffffffffffffffffffffffffffffffff163b036103e457816040517f847ac5640000000000000000000000000000000000000000000000000000000081526004016103db9190610fe2565b60405180910390fd5b60006103ee610aff565b9050828160000160006101000a81548173ffffffffffffffffffffffffffffffffffffffff021916908373ffffffffffffffffffffffffffffffffffffffff1602179055508273ffffffffffffffffffffffffffffffffffffffff167fbc7cd75a20ee27fd9adebab32041f755214dbc6bffa90cc0225b39da2e5c2d3b60405160405180910390a2505050565b6000610485610b27565b905060008160000160089054906101000a900460ff1615905060008260000160009054906101000a900467ffffffffffffffff1690506000808267ffffffffffffffff161480156104d35750825b9050600060018367ffffffffffffffff16148015610508575060003073ffffffffffffffffffffffffffffffffffffffff163b145b905081158015610516575080155b1561054d576040517ff92ee8a900000000000000000000000000000000000000000000000000000000815260040160405180910390fd5b60018560000160006101000a81548167ffffffffffffffff021916908367ffffffffffffffff160217905550831561059d5760018560000160086101000a81548160ff0219169083151502179055505b6105aa6000801b886108f4565b5060006105b5610aff565b9050868160000160006101000a81548173ffffffffffffffffffffffffffffffffffffffff021916908373ffffffffffffffffffffffffffffffffffffffff1602179055505083156106575760008560000160086101000a81548160ff0219169083151502179055507fc7f505b2f371ae2175ee4913f4499e1f2633a7b5936321eed1cdaeb6115181d2600160405161064e919061104c565b60405180910390a15b50505050505050565b60008060001b61066f816108e0565b6000878787878760405160240161068a9594939291906110c5565b604051602081830303815290604052639065714760e01b6020820180517bffffffffffffffffffffffffffffffffffffffffffffffffffffffff83818316178352505050509050600030826040516106e190610bb7565b6106ec92919061118d565b604051809103906000f080158015610708573d6000803e3d6000fd5b5090508073ffffffffffffffffffffffffffffffffffffffff168973ffffffffffffffffffffffffffffffffffffffff167f7a32d754ba1df657eee0ec37047046133d5c7148deeedb8f9ee139deca53dac460405160405180910390a380935050505095945050505050565b60008061077f610aff565b90508060000160009054906101000a900473ffffffffffffffffffffffffffffffffffffffff1691505090565b6000806107b76108b8565b905080600001600085815260200190815260200160002060000160008473ffffffffffffffffffffffffffffffffffffffff1673ffffffffffffffffffffffffffffffffffffffff16815260200190815260200160002060009054906101000a900460ff1691505092915050565b6000801b81565b610835826102b0565b61083e816108e0565b61084883836109fd565b50505050565b60007f01ffc9a7000000000000000000000000000000000000000000000000000000007bffffffffffffffffffffffffffffffffffffffffffffffffffffffff1916827bffffffffffffffffffffffffffffffffffffffffffffffffffffffff1916149050919050565b60007f02dd7bc7dec4dceedda775e58dd541e08a116c6c53815c0bd028192f7b626800905090565b6108f1816108ec6109f5565b610b3b565b50565b6000806108ff6108b8565b905061090b84846107ac565b6109e957600181600001600086815260200190815260200160002060000160008573ffffffffffffffffffffffffffffffffffffffff1673ffffffffffffffffffffffffffffffffffffffff16815260200190815260200160002060006101000a81548160ff0219169083151502179055506109856109f5565b73ffffffffffffffffffffffffffffffffffffffff168373ffffffffffffffffffffffffffffffffffffffff16857f2f8788117e7eff1d82e926ec794901d17c78024a50270940304540a733656f0d60405160405180910390a460019150506109ef565b60009150505b92915050565b600033905090565b600080610a086108b8565b9050610a1484846107ac565b15610af357600081600001600086815260200190815260200160002060000160008573ffffffffffffffffffffffffffffffffffffffff1673ffffffffffffffffffffffffffffffffffffffff16815260200190815260200160002060006101000a81548160ff021916908315150217905550610a8f6109f5565b73ffffffffffffffffffffffffffffffffffffffff168373ffffffffffffffffffffffffffffffffffffffff16857ff6391f5c32d9c69d2a47ea670b442974b53935d1edc7fd64eb21e047a839171b60405160405180910390a46001915050610af9565b60009150505b92915050565b60007f55b6b9251cb334e3958d3c61b6cd0c72a19feb06b7c99f3c50d6684234877800905090565b600080610b32610b8c565b90508091505090565b610b4582826107ac565b610b885780826040517fe2517d3f000000000000000000000000000000000000000000000000000000008152600401610b7f9291906111bd565b60405180910390fd5b5050565b60007ff0c57e16840df040f15088dc2f81fe391c3923bec73e23a9662efc9c229c6a0060001b905090565b610960806111e783390190565b600080fd5b600080fd5b60007fffffffff0000000000000000000000000000000000000000000000000000000082169050919050565b610c0381610bce565b8114610c0e57600080fd5b50565b600081359050610c2081610bfa565b92915050565b600060208284031215610c3c57610c3b610bc4565b5b6000610c4a84828501610c11565b91505092915050565b60008115159050919050565b610c6881610c53565b82525050565b6000602082019050610c836000830184610c5f565b92915050565b6000819050919050565b610c9c81610c89565b8114610ca757600080fd5b50565b600081359050610cb981610c93565b92915050565b600060208284031215610cd557610cd4610bc4565b5b6000610ce384828501610caa565b91505092915050565b610cf581610c89565b82525050565b6000602082019050610d106000830184610cec565b92915050565b600073ffffffffffffffffffffffffffffffffffffffff82169050919050565b6000610d4182610d16565b9050919050565b610d5181610d36565b8114610d5c57600080fd5b50565b600081359050610d6e81610d48565b92915050565b60008060408385031215610d8b57610d8a610bc4565b5b6000610d9985828601610caa565b9250506020610daa85828601610d5f565b9150509250929050565b6000610dbf82610d36565b9050919050565b610dcf81610db4565b8114610dda57600080fd5b50565b600081359050610dec81610dc6565b92915050565b600060208284031215610e0857610e07610bc4565b5b6000610e1684828501610ddd565b91505092915050565b60008060408385031215610e3657610e35610bc4565b5b6000610e4485828601610d5f565b9250506020610e5585828601610ddd565b9150509250929050565b600080fd5b600080fd5b600080fd5b60008083601f840112610e8457610e83610e5f565b5b8235905067ffffffffffffffff811115610ea157610ea0610e64565b5b602083019150836001820283011115610ebd57610ebc610e69565b5b9250929050565b600080600080600060608688031215610ee057610edf610bc4565b5b6000610eee88828901610d5f565b955050602086013567ffffffffffffffff811115610f0f57610f0e610bc9565b5b610f1b88828901610e6e565b9450945050604086013567ffffffffffffffff811115610f3e57610f3d610bc9565b5b610f4a88828901610e6e565b92509250509295509295909350565b6000819050919050565b6000610f7e610f79610f7484610d16565b610f59565b610d16565b9050919050565b6000610f9082610f63565b9050919050565b6000610fa282610f85565b9050919050565b610fb281610f97565b82525050565b6000602082019050610fcd6000830184610fa9565b92915050565b610fdc81610d36565b82525050565b6000602082019050610ff76000830184610fd3565b92915050565b6000819050919050565b600067ffffffffffffffff82169050919050565b600061103661103161102c84610ffd565b610f59565b611007565b9050919050565b6110468161101b565b82525050565b6000602082019050611061600083018461103d565b92915050565b600082825260208201905092915050565b82818337600083830152505050565b6000601f19601f8301169050919050565b60006110a48385611067565b93506110b1838584611078565b6110ba83611087565b840190509392505050565b60006060820190506110da6000830188610fd3565b81810360208301526110ed818688611098565b90508181036040830152611102818486611098565b90509695505050505050565b600081519050919050565b600082825260208201905092915050565b60005b8381101561114857808201518184015260208101905061112d565b60008484015250505050565b600061115f8261110e565b6111698185611119565b935061117981856020860161112a565b61118281611087565b840191505092915050565b60006040820190506111a26000830185610fd3565b81810360208301526111b48184611154565b90509392505050565b60006040820190506111d26000830185610fd3565b6111df6020830184610cec565b939250505056fe60a060405260405161096038038061096083398181016040528101906100259190610684565b610035828261007060201b60201c565b8173ffffffffffffffffffffffffffffffffffffffff1660808173ffffffffffffffffffffffffffffffffffffffff16815250505050610795565b61007f8261016360201b60201c565b8173ffffffffffffffffffffffffffffffffffffffff167f1cf3b03a6cf19fa2baba4df148e9dcabedea7f8a5c07840e207e5c089be95d3e60405160405180910390a26000815111156101505761014a8273ffffffffffffffffffffffffffffffffffffffff16635c60da1b6040518163ffffffff1660e01b8152600401602060405180830381865afa15801561011a573d6000803e3d6000fd5b505050506040513d601f19601f8201168201806040525081019061013e91906106e0565b8261030660201b60201c565b5061015f565b61015e61039060201b60201c565b5b5050565b60008173ffffffffffffffffffffffffffffffffffffffff163b036101bf57806040517f64ced0ec0000000000000000000000000000000000000000000000000000000081526004016101b6919061071c565b60405180910390fd5b806101f27fa3f0ad74e5423aebfd80d3ef4346578335a9a72aeaee59ff6cb3582b35133d5060001b6103cd60201b60201c565b60000160006101000a81548173ffffffffffffffffffffffffffffffffffffffff021916908373ffffffffffffffffffffffffffffffffffffffff16021790555060008173ffffffffffffffffffffffffffffffffffffffff16635c60da1b6040518163ffffffff1660e01b8152600401602060405180830381865afa158015610280573d6000803e3d6000fd5b505050506040513d601f19601f820116820180604052508101906102a491906106e0565b905060008173ffffffffffffffffffffffffffffffffffffffff163b0361030257806040517f4c9c8ce30000000000000000000000000000000000000000000000000000000081526004016102f9919061071c565b60405180910390fd5b5050565b60606000808473ffffffffffffffffffffffffffffffffffffffff1684604051610330919061077e565b600060405180830381855af49150503d806000811461036b576040519150601f19603f3d011682016040523d82523d6000602084013e610370565b606091505b50915091506103868583836103d760201b60201c565b9250505092915050565b60003411156103cb576040517fb398979f00000000000000000000000000000000000000000000000000000000815260040160405180910390fd5b565b6000819050919050565b6060826103f2576103ed8261046c60201b60201c565b610464565b6000825114801561041a575060008473ffffffffffffffffffffffffffffffffffffffff163b145b1561045c57836040517f9996b315000000000000000000000000000000000000000000000000000000008152600401610453919061071c565b60405180910390fd5b819050610465565b5b9392505050565b60008151111561047f5780518082602001fd5b6040517fd6bda27500000000000000000000000000000000000000000000000000000000815260040160405180910390fd5b6000604051905090565b600080fd5b600080fd5b600073ffffffffffffffffffffffffffffffffffffffff82169050919050565b60006104f0826104c5565b9050919050565b610500816104e5565b811461050b57600080fd5b50565b60008151905061051d816104f7565b92915050565b600080fd5b600080fd5b6000601f19601f8301169050919050565b7f4e487b7100000000000000000000000000000000000000000000000000000000600052604160045260246000fd5b6105768261052d565b810181811067ffffffffffffffff821117156105955761059461053e565b5b80604052505050565b60006105a86104b1565b90506105b4828261056d565b919050565b600067ffffffffffffffff8211156105d4576105d361053e565b5b6105dd8261052d565b9050602081019050919050565b60005b838110156106085780820151818401526020810190506105ed565b60008484015250505050565b6000610627610622846105b9565b61059e565b90508281526020810184848401111561064357610642610528565b5b61064e8482856105ea565b509392505050565b600082601f83011261066b5761066a610523565b5b815161067b848260208601610614565b91505092915050565b6000806040838503121561069b5761069a6104bb565b5b60006106a98582860161050e565b925050602083015167ffffffffffffffff8111156106ca576106c96104c0565b5b6106d685828601610656565b9150509250929050565b6000602082840312156106f6576106f56104bb565b5b60006107048482850161050e565b91505092915050565b610716816104e5565b82525050565b6000602082019050610731600083018461070d565b92915050565b600081519050919050565b600081905092915050565b600061075882610737565b6107628185610742565b93506107728185602086016105ea565b80840191505092915050565b600061078a828461074d565b915081905092915050565b6080516101b16107af600039600060c701526101b16000f3fe608060405261000c61000e565b005b61001e610019610020565b61009d565b565b600061002a6100c3565b73ffffffffffffffffffffffffffffffffffffffff16635c60da1b6040518163ffffffff1660e01b8152600401602060405180830381865afa158015610074573d6000803e3d6000fd5b505050506040513d601f19601f82011682018060405250810190610098919061014e565b905090565b3660008037600080366000845af43d6000803e80600081146100be573d6000f35b3d6000fd5b60007f0000000000000000000000000000000000000000000000000000000000000000905090565b600080fd5b600073ffffffffffffffffffffffffffffffffffffffff82169050919050565b600061011b826100f0565b9050919050565b61012b81610110565b811461013657600080fd5b50565b60008151905061014881610122565b92915050565b600060208284031215610164576101636100eb565b5b600061017284828501610139565b9150509291505056fea2646970667358221220d7ee9d9b74dcf738ce76f46df27605097a7ce45ed5333c7a2c97e4344264f10f64736f6c634300081c0033a26469706673582212200d1035313eb3df2aa6cec39bbb095cdec65eec52353703a9e8e15b57fb99f63364736f6c634300081c0033",
  "linkReferences": {},
  "deployedLinkReferences": {}
}