{
  "_format": "hh-sol-artifact-1",
  "contractName": "EduNFT",
  "sourceName": "contracts/EduNFT.sol",
  "abi": [
    {
      "inputs": [
        {
          "internalType": "address",
          "name": "sender",
          "type": "address"
        },
        {
          "internalType": "uint256",
          "name": "tokenId",
          "type": "uint256"
        },
        {
          "internalType": "address",
          "name": "owner",
          "type": "address"
        }
      ],
      "name": "ERC721IncorrectOwner",
      "type": "error"
    },
    {
      "inputs": [
        {
          "internalType": "address",
          "name": "operator",
          "type": "address"
        },
        {
          "internalType": "uint256",
          "name": "tokenId",
          "type": "uint256"
        }
      ],
      "name": "ERC721InsufficientApproval",
      "type": "error"
    },
    {
      "inputs": [
        {
          "internalType": "address",
          "name": "approver",
          "type": "address"
        }
      ],
      "name": "ERC721InvalidApprover",
      "type": "error"
    },
    {
      "inputs": [
        {
          "internalType": "address",
          "name": "operator",
          "type": "address"
        }
      ],
      "name": "ERC721InvalidOperator",
      "type": "error"
    },
    {
      "inputs": [
        {
          "internalType": "address",
          "name": "owner",
          "type": "address"
        }
      ],
      "name": "ERC721InvalidOwner",
      "type": "error"
    },
    {
      "inputs": [
        {
          "internalType": "address",
          "name": "receiver",
          "type": "address"
        }
      ],
      "name": "ERC721InvalidReceiver",
      "type": "error"
    },
    {
      "inputs": [
        {
          "internalType": "address",
          "name": "sender",
          "type": "address"
        }
      ],
      "name": "ERC721InvalidSender",
      "type": "error"
    },
    {
      "inputs": [
        {
          "internalType": "uint256",
          "name": "tokenId",
          "type": "uint256"
        }
      ],
      "name": "ERC721NonexistentToken",
      "type": "error"
    },
    {
      "inputs": [],
      "name": "InvalidInitialization",
      "type": "error"
    },
    {
      "inputs": [],
      "name": "NotInitializing",
      "type": "error"
    },
    {
      "inputs": [
        {
          "internalType": "address",
          "name": "owner",
          "type": "address"
        }
      ],
      "name": "OwnableInvalidOwner",
      "type": "error"
    },
    {
      "inputs": [
        {
          "internalType": "address",
          "name": "account",
          "type": "address"
        }
      ],
      "name": "OwnableUnauthorizedAccount",
      "type": "error"
    },
    {
      "anonymous": false,
      "inputs": [
        {
          "indexed": true,
          "internalType": "address",
          "name": "owner",
          "type": "address"
        },
        {
          "indexed": true,
          "internalType": "address",
          "name": "approved",
          "type": "address"
        },
        {
          "indexed": true,
          "internalType": "uint256",
          "name": "tokenId",
          "type": "uint256"
        }
      ],
      "name": "Approval",
      "type": "event"
    },
    {
      "anonymous": false,
      "inputs": [
        {
          "indexed": true,
          "internalType": "address",
          "name": "owner",
          "type": "address"
        },
        {
          "indexed": true,
          "internalType": "address",
          "name": "operator",
          "type": "address"
        },
        {
          "indexed": false,
          "internalType": "bool",
          "name": "approved",
          "type": "bool"
        }
      ],
      "name": "ApprovalForAll",
      "type": "event"
    },
    {
      "anonymous": false,
      "inputs": [
        {
          "indexed": false,
          "internalType": "uint256",
          "name": "_fromTokenId",
          "type": "uint256"
        },
        {
          "indexed": false,
          "internalType": "uint256",
          "name": "_toTokenId",
          "type": "uint256"
        }
      ],
      "name": "BatchMetadataUpdate",
      "type": "event"
    },
    {
      "anonymous": false,
      "inputs": [
        {
          "indexed": false,
          "internalType": "uint64",
          "name": "version",
          "type": "uint64"
        }
      ],
      "name": "Initialized",
      "type": "event"
    },
    {
      "anonymous": false,
      "inputs": [
        {
          "indexed": false,
          "internalType": "uint256",
          "name": "_tokenId",
          "type": "uint256"
        }
      ],
      "name": "MetadataUpdate",
      "type": "event"
    },
    {
      "anonymous": false,
      "inputs": [
        {
          "indexed": true,
          "internalType": "address",
          "name": "previousOwner",
          "type": "address"
        },
        {
          "indexed": true,
          "internalType": "address",
          "name": "newOwner",
          "type": "address"
        }
      ],
      "name": "OwnershipTransferStarted",
      "type": "event"
    },
    {
      "anonymous": false,
      "inputs": [
        {
          "indexed": true,
          "internalType": "address",
          "name": "previousOwner",
          "type": "address"
        },
        {
          "indexed": true,
          "internalType": "address",
          "name": "newOwner",
          "type": "address"
        }
      ],
      "name": "OwnershipTransferred",
      "type": "event"
    },
    {
      "anonymous": false,
      "inputs": [
        {
          "indexed": true,
          "internalType": "address",
          "name": "from",
          "type": "address"
        },
        {
          "indexed": true,
          "internalType": "address",
          "name": "to",
          "type": "address"
        },
        {
          "indexed": true,
          "internalType": "uint256",
          "name": "tokenId",
          "type": "uint256"
        }
      ],
      "name": "Transfer",
      "type": "event"
    },
    {
      "inputs": [],
      "name": "acceptOwnership",
      "outputs": [],
      "stateMutability": "nonpayable",
      "type": "function"
    },
    {
      "inputs": [
        {
          "internalType": "address",
          "name": "to",
          "type": "address"
        },
        {
          "internalType": "uint256",
          "name": "tokenId",
          "type": "uint256"
        }
      ],
      "name": "approve",
      "outputs": [],
      "stateMutability": "nonpayable",
      "type": "function"
    },
    {
      "inputs": [
        {
          "internalType": "address",
          "name": "owner",
          "type": "address"
        }
      ],
      "name": "balanceOf",
      "outputs": [
        {
          "internalType": "uint256",
          "name": "",
          "type": "uint256"
        }
      ],
      "stateMutability": "view",
      "type": "function"
    },
    {
      "inputs": [
        {
          "internalType": "uint256",
          "name": "tokenId",
          "type": "uint256"
        }
      ],
      "name": "getApproved",
      "outputs": [
        {
          "internalType": "address",
          "name": "",
          "type": "address"
        }
      ],
      "stateMutability": "view",
      "type": "function"
    },
    {
      "inputs": [
        {
          "internalType": "address",
          "name": "owner",
          "type": "address"
        },
        {
          "internalType": "string",
          "name": "name",
          "type": "string"
        },
        {
          "internalType": "string",
          "name": "symbol",
          "type": "string"
        }
      ],
      "name": "initialize",
      "outputs": [],
      "stateMutability": "nonpayable",
      "type": "function"
    },
    {
      "inputs": [
        {
          "internalType": "address",
          "name": "owner",
          "type": "address"
        },
        {
          "internalType": "address",
          "name": "operator",
          "type": "address"
        }
      ],
      "name": "isApprovedForAll",
      "outputs": [
        {
          "internalType": "bool",
          "name": "",
          "type": "bool"
        }
      ],
      "stateMutability": "view",
      "type": "function"
    },
    {
      "inputs": [
        {
          "internalType": "address",
          "name": "to",
          "type": "address"
        },
        {
          "internalType": "uint256",
          "name": "tokenId",
          "type": "uint256"
        },
        {
          "internalType": "string",
          "name": "tokenURI",
          "type": "string"
        }
      ],
      "name": "mint",
      "outputs": [],
      "stateMutability": "nonpayable",
      "type": "function"
    },
    {
      "inputs": [],
      "name": "name",
      "outputs": [
        {
          "internalType": "string",
          "name": "",
          "type": "string"
        }
      ],
      "stateMutability": "view",
      "type": "function"
    },
    {
      "inputs": [],
      "name": "owner",
      "outputs": [
        {
          "internalType": "address",
          "name": "",
          "type": "address"
        }
      ],
      "stateMutability": "view",
      "type": "function"
    },
    {
      "inputs": [
        {
          "internalType": "uint256",
          "name": "tokenId",
          "type": "uint256"
        }
      ],
      "name": "ownerOf",
      "outputs": [
        {
          "internalType": "address",
          "name": "",
          "type": "address"
        }
      ],
      "stateMutability": "view",
      "type": "function"
    },
    {
      "inputs": [],
      "name": "pendingOwner",
      "outputs": [
        {
          "internalType": "address",
          "name": "",
          "type": "address"
        }
      ],
      "stateMutability": "view",
      "type": "function"
    },
    {
      "inputs": [],
      "name": "renounceOwnership",
      "outputs": [],
      "stateMutability": "nonpayable",
      "type": "function"
    },
    {
      "inputs": [
        {
          "internalType": "address",
          "name": "from",
          "type": "address"
        },
        {
          "internalType": "address",
          "name": "to",
          "type": "address"
        },
        {
          "internalType": "uint256",
          "name": "tokenId",
          "type": "uint256"
        }
      ],
      "name": "safeTransferFrom",
      "outputs": [],
      "stateMutability": "nonpayable",
      "type": "function"
    },
    {
      "inputs": [
        {
          "internalType": "address",
          "name": "from",
          "type": "address"
        },
        {
          "internalType": "address",
          "name": "to",
          "type": "address"
        },
        {
          "internalType": "uint256",
          "name": "tokenId",
          "type": "uint256"
        },
        {
          "internalType": "bytes",
          "name": "data",
          "type": "bytes"
        }
      ],
      "name": "safeTransferFrom",
      "outputs": [],
      "stateMutability": "nonpayable",
      "type": "function"
    },
    {
      "inputs": [
        {
          "internalType": "address",
          "name": "operator",
          "type": "address"
        },
        {
          "internalType": "bool",
          "name": "approved",
          "type": "bool"
        }
      ],
      "name": "setApprovalForAll",
      "outputs": [],
      "stateMutability": "nonpayable",
      "type": "function"
    },
    {
      "inputs": [
        {
          "internalType": "bytes4",
          "name": "interfaceId",
          "type": "bytes4"
        }
      ],
      "name": "supportsInterface",
      "outputs": [
        {
          "internalType": "bool",
          "name": "",
          "type": "bool"
        }
      ],
      "stateMutability": "view",
      "type": "function"
    },
    {
      "inputs": [],
      "name": "symbol",
      "outputs": [
        {
          "internalType": "string",
          "name": "",
          "type": "string"
        }
      ],
      "stateMutability": "view",
      "type": "function"
    },
    {
      "inputs": [
        {
          "internalType": "uint256",
          "name": "tokenId",
          "type": "uint256"
        }
      ],
      "name": "tokenURI",
      "outputs": [
        {
          "internalType": "string",
          "name": "",
          "type": "string"
        }
      ],
      "stateMutability": "view",
      "type": "function"
    },
    {
      "inputs": [
        {
          "internalType": "address",
          "name": "from",
          "type": "address"
        },
        {
          "internalType": "address",
          "name": "to",
          "type": "address"
        },
        {
          "internalType": "uint256",
          "name": "tokenId",
          "type": "uint256"
        }
      ],
      "name": "transferFrom",
      "outputs": [],
      "stateMutability": "nonpayable",
      "type": "function"
    },
    {
      "inputs": [
        {
          "internalType": "address",
          "name": "newOwner",
          "type": "address"
        }
      ],
      "name": "transferOwnership",
      "outputs": [],
      "stateMutability": "nonpayable",
      "type": "function"
    }
  ],
  "bytecode": "0x6080604052348015600f57600080fd5b50612d658061001f6000396000f3fe608060405234801561001057600080fd5b506004361061012c5760003560e01c80638da5cb5b116100ad578063c87b56dd11610071578063c87b56dd14610307578063d3fc986414610337578063e30c397814610353578063e985e9c514610371578063f2fde38b146103a15761012c565b80638da5cb5b14610277578063906571471461029557806395d89b41146102b1578063a22cb465146102cf578063b88d4fde146102eb5761012c565b806342842e0e116100f457806342842e0e146101e75780636352211e1461020357806370a0823114610233578063715018a61461026357806379ba50971461026d5761012c565b806301ffc9a71461013157806306fdde0314610161578063081812fc1461017f578063095ea7b3146101af57806323b872dd146101cb575b600080fd5b61014b6004803603810190610146919061215e565b6103bd565b60405161015891906121a6565b60405180910390f35b61016961041e565b6040516101769190612251565b60405180910390f35b610199600480360381019061019491906122a9565b6104bf565b6040516101a69190612317565b60405180910390f35b6101c960048036038101906101c4919061235e565b6104db565b005b6101e560048036038101906101e0919061239e565b6104f1565b005b61020160048036038101906101fc919061239e565b6105f3565b005b61021d600480360381019061021891906122a9565b610613565b60405161022a9190612317565b60405180910390f35b61024d600480360381019061024891906123f1565b610625565b60405161025a919061242d565b60405180910390f35b61026b6106ee565b005b610275610702565b005b61027f610791565b60405161028c9190612317565b60405180910390f35b6102af60048036038101906102aa91906124ad565b6107c9565b005b6102b96109ee565b6040516102c69190612251565b60405180910390f35b6102e960048036038101906102e4919061256e565b610a8f565b005b610305600480360381019061030091906126de565b610aa5565b005b610321600480360381019061031c91906122a9565b610aca565b60405161032e9190612251565b60405180910390f35b610351600480360381019061034c9190612761565b610bee565b005b61035b610c54565b6040516103689190612317565b60405180910390f35b61038b600480360381019061038691906127d5565b610c8c565b60405161039891906121a6565b60405180910390f35b6103bb60048036038101906103b691906123f1565b610d2e565b005b6000634906490660e01b7bffffffffffffffffffffffffffffffffffffffffffffffffffffffff1916827bffffffffffffffffffffffffffffffffffffffffffffffffffffffff19161480610417575061041682610dea565b5b9050919050565b6060600061042a610ecc565b905080600001805461043b90612844565b80601f016020809104026020016040519081016040528092919081815260200182805461046790612844565b80156104b45780601f10610489576101008083540402835291602001916104b4565b820191906000526020600020905b81548152906001019060200180831161049757829003601f168201915b505050505091505090565b60006104ca82610ef4565b506104d482610f7c565b9050919050565b6104ed82826104e8610fc7565b610fcf565b5050565b600073ffffffffffffffffffffffffffffffffffffffff168273ffffffffffffffffffffffffffffffffffffffff16036105635760006040517f64a0ae9200000000000000000000000000000000000000000000000000000000815260040161055a9190612317565b60405180910390fd5b60006105778383610572610fc7565b610fe1565b90508373ffffffffffffffffffffffffffffffffffffffff168173ffffffffffffffffffffffffffffffffffffffff16146105ed578382826040517f64283d7b0000000000000000000000000000000000000000000000000000000081526004016105e493929190612875565b60405180910390fd5b50505050565b61060e83838360405180602001604052806000815250610aa5565b505050565b600061061e82610ef4565b9050919050565b600080610630610ecc565b9050600073ffffffffffffffffffffffffffffffffffffffff168373ffffffffffffffffffffffffffffffffffffffff16036106a45760006040517f89c62b6400000000000000000000000000000000000000000000000000000000815260040161069b9190612317565b60405180910390fd5b8060030160008473ffffffffffffffffffffffffffffffffffffffff1673ffffffffffffffffffffffffffffffffffffffff16815260200190815260200160002054915050919050565b6106f661120e565b6107006000611295565b565b600061070c610fc7565b90508073ffffffffffffffffffffffffffffffffffffffff1661072d610c54565b73ffffffffffffffffffffffffffffffffffffffff161461078557806040517f118cdaa700000000000000000000000000000000000000000000000000000000815260040161077c9190612317565b60405180910390fd5b61078e81611295565b50565b60008061079c6112d5565b90508060000160009054906101000a900473ffffffffffffffffffffffffffffffffffffffff1691505090565b60006107d36112fd565b905060008160000160089054906101000a900460ff1615905060008260000160009054906101000a900467ffffffffffffffff1690506000808267ffffffffffffffff161480156108215750825b9050600060018367ffffffffffffffff16148015610856575060003073ffffffffffffffffffffffffffffffffffffffff163b145b905081158015610864575080155b1561089b576040517ff92ee8a900000000000000000000000000000000000000000000000000000000815260040160405180910390fd5b60018560000160006101000a81548167ffffffffffffffff021916908367ffffffffffffffff16021790555083156108eb5760018560000160086101000a81548160ff0219169083151502179055505b61097d89898080601f016020809104026020016040519081016040528093929190818152602001838380828437600081840152601f19601f8201169050808301925050505050505088888080601f016020809104026020016040519081016040528093929190818152602001838380828437600081840152601f19601f82011690508083019250505050505050611311565b6109868a611327565b83156109e25760008560000160086101000a81548160ff0219169083151502179055507fc7f505b2f371ae2175ee4913f4499e1f2633a7b5936321eed1cdaeb6115181d260016040516109d99190612905565b60405180910390a15b50505050505050505050565b606060006109fa610ecc565b9050806001018054610a0b90612844565b80601f0160208091040260200160405190810160405280929190818152602001828054610a3790612844565b8015610a845780601f10610a5957610100808354040283529160200191610a84565b820191906000526020600020905b815481529060010190602001808311610a6757829003601f168201915b505050505091505090565b610aa1610a9a610fc7565b838361133b565b5050565b610ab08484846104f1565b610ac4610abb610fc7565b858585856114b9565b50505050565b60606000610ad661166a565b9050610ae183610ef4565b5060008160000160008581526020019081526020016000208054610b0490612844565b80601f0160208091040260200160405190810160405280929190818152602001828054610b3090612844565b8015610b7d5780601f10610b5257610100808354040283529160200191610b7d565b820191906000526020600020905b815481529060010190602001808311610b6057829003601f168201915b505050505090506000610b8e611692565b90506000815103610ba457819350505050610be9565b600082511115610bda578082604051602001610bc192919061295c565b6040516020818303038152906040529350505050610be9565b610be3856116a9565b93505050505b919050565b610bf661120e565b610c008484611712565b610c4e8383838080601f016020809104026020016040519081016040528093929190818152602001838380828437600081840152601f19601f8201169050808301925050505050505061180b565b50505050565b600080610c5f611876565b90508060000160009054906101000a900473ffffffffffffffffffffffffffffffffffffffff1691505090565b600080610c97610ecc565b90508060050160008573ffffffffffffffffffffffffffffffffffffffff1673ffffffffffffffffffffffffffffffffffffffff16815260200190815260200160002060008473ffffffffffffffffffffffffffffffffffffffff1673ffffffffffffffffffffffffffffffffffffffff16815260200190815260200160002060009054906101000a900460ff1691505092915050565b610d3661120e565b6000610d40611876565b9050818160000160006101000a81548173ffffffffffffffffffffffffffffffffffffffff021916908373ffffffffffffffffffffffffffffffffffffffff1602179055508173ffffffffffffffffffffffffffffffffffffffff16610da4610791565b73ffffffffffffffffffffffffffffffffffffffff167f38d16b8cac22d99fc7c124b9cd0de2d3fa1faef420bfe791d8c362d765e2270060405160405180910390a35050565b60007f80ac58cd000000000000000000000000000000000000000000000000000000007bffffffffffffffffffffffffffffffffffffffffffffffffffffffff1916827bffffffffffffffffffffffffffffffffffffffffffffffffffffffff19161480610eb557507f5b5e139f000000000000000000000000000000000000000000000000000000007bffffffffffffffffffffffffffffffffffffffffffffffffffffffff1916827bffffffffffffffffffffffffffffffffffffffffffffffffffffffff1916145b80610ec55750610ec48261189e565b5b9050919050565b60007f80bb2b638cc20bc4d0a60d66940f3ab4a00c1d7b313497ca82fb0b4ab0079300905090565b600080610f0083611908565b9050600073ffffffffffffffffffffffffffffffffffffffff168173ffffffffffffffffffffffffffffffffffffffff1603610f7357826040517f7e273289000000000000000000000000000000000000000000000000000000008152600401610f6a919061242d565b60405180910390fd5b80915050919050565b600080610f87610ecc565b905080600401600084815260200190815260200160002060009054906101000a900473ffffffffffffffffffffffffffffffffffffffff16915050919050565b600033905090565b610fdc8383836001611953565b505050565b600080610fec610ecc565b90506000610ff985611908565b9050600073ffffffffffffffffffffffffffffffffffffffff168473ffffffffffffffffffffffffffffffffffffffff161461103b5761103a818587611b27565b5b600073ffffffffffffffffffffffffffffffffffffffff168173ffffffffffffffffffffffffffffffffffffffff16146110ce5761107d600086600080611953565b60018260030160008373ffffffffffffffffffffffffffffffffffffffff1673ffffffffffffffffffffffffffffffffffffffff168152602001908152602001600020600082825403925050819055505b600073ffffffffffffffffffffffffffffffffffffffff168673ffffffffffffffffffffffffffffffffffffffff16146111535760018260030160008873ffffffffffffffffffffffffffffffffffffffff1673ffffffffffffffffffffffffffffffffffffffff168152602001908152602001600020600082825401925050819055505b8582600201600087815260200190815260200160002060006101000a81548173ffffffffffffffffffffffffffffffffffffffff021916908373ffffffffffffffffffffffffffffffffffffffff160217905550848673ffffffffffffffffffffffffffffffffffffffff168273ffffffffffffffffffffffffffffffffffffffff167fddf252ad1be2c89b69c2b068fc378daa952ba7f163c4a11628f55a4df523b3ef60405160405180910390a480925050509392505050565b611216610fc7565b73ffffffffffffffffffffffffffffffffffffffff16611234610791565b73ffffffffffffffffffffffffffffffffffffffff161461129357611257610fc7565b6040517f118cdaa700000000000000000000000000000000000000000000000000000000815260040161128a9190612317565b60405180910390fd5b565b600061129f611876565b90508060000160006101000a81549073ffffffffffffffffffffffffffffffffffffffff02191690556112d182611beb565b5050565b60007f9016d09d72d40fdae2fd8ceac6b6234c7706214fd39c1cd1e609a0528c199300905090565b600080611308611cc2565b90508091505090565b611319611ced565b6113238282611d2d565b5050565b61132f611ced565b61133881611d6a565b50565b6000611345610ecc565b9050600073ffffffffffffffffffffffffffffffffffffffff168373ffffffffffffffffffffffffffffffffffffffff16036113b857826040517f5b08ba180000000000000000000000000000000000000000000000000000000081526004016113af9190612317565b60405180910390fd5b818160050160008673ffffffffffffffffffffffffffffffffffffffff1673ffffffffffffffffffffffffffffffffffffffff16815260200190815260200160002060008573ffffffffffffffffffffffffffffffffffffffff1673ffffffffffffffffffffffffffffffffffffffff16815260200190815260200160002060006101000a81548160ff0219169083151502179055508273ffffffffffffffffffffffffffffffffffffffff168473ffffffffffffffffffffffffffffffffffffffff167f17307eab39ab6107e8899845ad3d59bd9653f200f220920489ca2b5937696c31846040516114ab91906121a6565b60405180910390a350505050565b60008373ffffffffffffffffffffffffffffffffffffffff163b1115611663578273ffffffffffffffffffffffffffffffffffffffff1663150b7a02868685856040518563ffffffff1660e01b815260040161151894939291906129d5565b6020604051808303816000875af192505050801561155457506040513d601f19601f820116820180604052508101906115519190612a36565b60015b6115d8573d8060008114611584576040519150601f19603f3d011682016040523d82523d6000602084013e611589565b606091505b5060008151036115d057836040517f64a0ae920000000000000000000000000000000000000000000000000000000081526004016115c79190612317565b60405180910390fd5b805181602001fd5b63150b7a0260e01b7bffffffffffffffffffffffffffffffffffffffffffffffffffffffff1916817bffffffffffffffffffffffffffffffffffffffffffffffffffffffff19161461166157836040517f64a0ae920000000000000000000000000000000000000000000000000000000081526004016116589190612317565b60405180910390fd5b505b5050505050565b60007f0542a41881ee128a365a727b282c86fa859579490b9bb45aab8503648c8e7900905090565b606060405180602001604052806000815250905090565b60606116b482610ef4565b5060006116bf611692565b905060008151116116df576040518060200160405280600081525061170a565b806116e984611df0565b6040516020016116fa92919061295c565b6040516020818303038152906040525b915050919050565b600073ffffffffffffffffffffffffffffffffffffffff168273ffffffffffffffffffffffffffffffffffffffff16036117845760006040517f64a0ae9200000000000000000000000000000000000000000000000000000000815260040161177b9190612317565b60405180910390fd5b600061179283836000610fe1565b9050600073ffffffffffffffffffffffffffffffffffffffff168173ffffffffffffffffffffffffffffffffffffffff16146118065760006040517f73c6ac6e0000000000000000000000000000000000000000000000000000000081526004016117fd9190612317565b60405180910390fd5b505050565b600061181561166a565b90508181600001600085815260200190815260200160002090816118399190612c05565b507ff8e1a15aba9398e019f0b49df1a4fde98ee17ae345cb5f6b5e2c27f5033e8ce783604051611869919061242d565b60405180910390a1505050565b60007f237e158222e3e6968b72b9db0d8043aacf074ad9f650f0d1606b4d82ee432c00905090565b60007f01ffc9a7000000000000000000000000000000000000000000000000000000007bffffffffffffffffffffffffffffffffffffffffffffffffffffffff1916827bffffffffffffffffffffffffffffffffffffffffffffffffffffffff1916149050919050565b600080611913610ecc565b905080600201600084815260200190815260200160002060009054906101000a900473ffffffffffffffffffffffffffffffffffffffff16915050919050565b600061195d610ecc565b905081806119985750600073ffffffffffffffffffffffffffffffffffffffff168373ffffffffffffffffffffffffffffffffffffffff1614155b15611acc5760006119a885610ef4565b9050600073ffffffffffffffffffffffffffffffffffffffff168473ffffffffffffffffffffffffffffffffffffffff1614158015611a1357508373ffffffffffffffffffffffffffffffffffffffff168173ffffffffffffffffffffffffffffffffffffffff1614155b8015611a265750611a248185610c8c565b155b15611a6857836040517fa9fbf51f000000000000000000000000000000000000000000000000000000008152600401611a5f9190612317565b60405180910390fd5b8215611aca57848673ffffffffffffffffffffffffffffffffffffffff168273ffffffffffffffffffffffffffffffffffffffff167f8c5be1e5ebec7d5bd14f71427d1e84f3dd0314c0f7b2291e5b200ac8c7c3b92560405160405180910390a45b505b8481600401600086815260200190815260200160002060006101000a81548173ffffffffffffffffffffffffffffffffffffffff021916908373ffffffffffffffffffffffffffffffffffffffff1602179055505050505050565b611b32838383611ebe565b611be657600073ffffffffffffffffffffffffffffffffffffffff168373ffffffffffffffffffffffffffffffffffffffff1603611ba757806040517f7e273289000000000000000000000000000000000000000000000000000000008152600401611b9e919061242d565b60405180910390fd5b81816040517f177e802f000000000000000000000000000000000000000000000000000000008152600401611bdd929190612cd7565b60405180910390fd5b505050565b6000611bf56112d5565b905060008160000160009054906101000a900473ffffffffffffffffffffffffffffffffffffffff169050828260000160006101000a81548173ffffffffffffffffffffffffffffffffffffffff021916908373ffffffffffffffffffffffffffffffffffffffff1602179055508273ffffffffffffffffffffffffffffffffffffffff168173ffffffffffffffffffffffffffffffffffffffff167f8be0079c531659141344cd1fd0a4f28419497f9722a3daafe3b4186f6b6457e060405160405180910390a3505050565b60007ff0c57e16840df040f15088dc2f81fe391c3923bec73e23a9662efc9c229c6a0060001b905090565b611cf5611f7f565b611d2b576040517fd7e6bcf800000000000000000000000000000000000000000000000000000000815260040160405180910390fd5b565b611d35611ced565b6000611d3f610ecc565b905082816000019081611d529190612c05565b5081816001019081611d649190612c05565b50505050565b611d72611ced565b600073ffffffffffffffffffffffffffffffffffffffff168173ffffffffffffffffffffffffffffffffffffffff1603611de45760006040517f1e4fbdf7000000000000000000000000000000000000000000000000000000008152600401611ddb9190612317565b60405180910390fd5b611ded81611295565b50565b606060006001611dff84611f9f565b01905060008167ffffffffffffffff811115611e1e57611e1d6125b3565b5b6040519080825280601f01601f191660200182016040528015611e505781602001600182028036833780820191505090505b509050600082602001820190505b600115611eb3578080600190039150507f3031323334353637383961626364656600000000000000000000000000000000600a86061a8153600a8581611ea757611ea6612d00565b5b04945060008503611e5e575b819350505050919050565b60008073ffffffffffffffffffffffffffffffffffffffff168373ffffffffffffffffffffffffffffffffffffffff1614158015611f7657508273ffffffffffffffffffffffffffffffffffffffff168473ffffffffffffffffffffffffffffffffffffffff161480611f375750611f368484610c8c565b5b80611f7557508273ffffffffffffffffffffffffffffffffffffffff16611f5d83610f7c565b73ffffffffffffffffffffffffffffffffffffffff16145b5b90509392505050565b6000611f896112fd565b60000160089054906101000a900460ff16905090565b600080600090507a184f03e93ff9f4daa797ed6e38ed64bf6a1f0100000000000000008310611ffd577a184f03e93ff9f4daa797ed6e38ed64bf6a1f0100000000000000008381611ff357611ff2612d00565b5b0492506040810190505b6d04ee2d6d415b85acef8100000000831061203a576d04ee2d6d415b85acef810000000083816120305761202f612d00565b5b0492506020810190505b662386f26fc10000831061206957662386f26fc10000838161205f5761205e612d00565b5b0492506010810190505b6305f5e1008310612092576305f5e100838161208857612087612d00565b5b0492506008810190505b61271083106120b75761271083816120ad576120ac612d00565b5b0492506004810190505b606483106120da57606483816120d0576120cf612d00565b5b0492506002810190505b600a83106120e9576001810190505b80915050919050565b6000604051905090565b600080fd5b600080fd5b60007fffffffff0000000000000000000000000000000000000000000000000000000082169050919050565b61213b81612106565b811461214657600080fd5b50565b60008135905061215881612132565b92915050565b600060208284031215612174576121736120fc565b5b600061218284828501612149565b91505092915050565b60008115159050919050565b6121a08161218b565b82525050565b60006020820190506121bb6000830184612197565b92915050565b600081519050919050565b600082825260208201905092915050565b60005b838110156121fb5780820151818401526020810190506121e0565b60008484015250505050565b6000601f19601f8301169050919050565b6000612223826121c1565b61222d81856121cc565b935061223d8185602086016121dd565b61224681612207565b840191505092915050565b6000602082019050818103600083015261226b8184612218565b905092915050565b6000819050919050565b61228681612273565b811461229157600080fd5b50565b6000813590506122a38161227d565b92915050565b6000602082840312156122bf576122be6120fc565b5b60006122cd84828501612294565b91505092915050565b600073ffffffffffffffffffffffffffffffffffffffff82169050919050565b6000612301826122d6565b9050919050565b612311816122f6565b82525050565b600060208201905061232c6000830184612308565b92915050565b61233b816122f6565b811461234657600080fd5b50565b60008135905061235881612332565b92915050565b60008060408385031215612375576123746120fc565b5b600061238385828601612349565b925050602061239485828601612294565b9150509250929050565b6000806000606084860312156123b7576123b66120fc565b5b60006123c586828701612349565b93505060206123d686828701612349565b92505060406123e786828701612294565b9150509250925092565b600060208284031215612407576124066120fc565b5b600061241584828501612349565b91505092915050565b61242781612273565b82525050565b6000602082019050612442600083018461241e565b92915050565b600080fd5b600080fd5b600080fd5b60008083601f84011261246d5761246c612448565b5b8235905067ffffffffffffffff81111561248a5761248961244d565b5b6020830191508360018202830111156124a6576124a5612452565b5b9250929050565b6000806000806000606086880312156124c9576124c86120fc565b5b60006124d788828901612349565b955050602086013567ffffffffffffffff8111156124f8576124f7612101565b5b61250488828901612457565b9450945050604086013567ffffffffffffffff81111561252757612526612101565b5b61253388828901612457565b92509250509295509295909350565b61254b8161218b565b811461255657600080fd5b50565b60008135905061256881612542565b92915050565b60008060408385031215612585576125846120fc565b5b600061259385828601612349565b92505060206125a485828601612559565b9150509250929050565b600080fd5b7f4e487b7100000000000000000000000000000000000000000000000000000000600052604160045260246000fd5b6125eb82612207565b810181811067ffffffffffffffff8211171561260a576126096125b3565b5b80604052505050565b600061261d6120f2565b905061262982826125e2565b919050565b600067ffffffffffffffff821115612649576126486125b3565b5b61265282612207565b9050602081019050919050565b82818337600083830152505050565b600061268161267c8461262e565b612613565b90508281526020810184848401111561269d5761269c6125ae565b5b6126a884828561265f565b509392505050565b600082601f8301126126c5576126c4612448565b5b81356126d584826020860161266e565b91505092915050565b600080600080608085870312156126f8576126f76120fc565b5b600061270687828801612349565b945050602061271787828801612349565b935050604061272887828801612294565b925050606085013567ffffffffffffffff81111561274957612748612101565b5b612755878288016126b0565b91505092959194509250565b6000806000806060858703121561277b5761277a6120fc565b5b600061278987828801612349565b945050602061279a87828801612294565b935050604085013567ffffffffffffffff8111156127bb576127ba612101565b5b6127c787828801612457565b925092505092959194509250565b600080604083850312156127ec576127eb6120fc565b5b60006127fa85828601612349565b925050602061280b85828601612349565b9150509250929050565b7f4e487b7100000000000000000000000000000000000000000000000000000000600052602260045260246000fd5b6000600282049050600182168061285c57607f821691505b60208210810361286f5761286e612815565b5b50919050565b600060608201905061288a6000830186612308565b612897602083018561241e565b6128a46040830184612308565b949350505050565b6000819050919050565b600067ffffffffffffffff82169050919050565b6000819050919050565b60006128ef6128ea6128e5846128ac565b6128ca565b6128b6565b9050919050565b6128ff816128d4565b82525050565b600060208201905061291a60008301846128f6565b92915050565b600081905092915050565b6000612936826121c1565b6129408185612920565b93506129508185602086016121dd565b80840191505092915050565b6000612968828561292b565b9150612974828461292b565b91508190509392505050565b600081519050919050565b600082825260208201905092915050565b60006129a782612980565b6129b1818561298b565b93506129c18185602086016121dd565b6129ca81612207565b840191505092915050565b60006080820190506129ea6000830187612308565b6129f76020830186612308565b612a04604083018561241e565b8181036060830152612a16818461299c565b905095945050505050565b600081519050612a3081612132565b92915050565b600060208284031215612a4c57612a4b6120fc565b5b6000612a5a84828501612a21565b91505092915050565b60008190508160005260206000209050919050565b60006020601f8301049050919050565b600082821b905092915050565b600060088302612ac57fffffffffffffffffffffffffffffffffffffffffffffffffffffffffffffffff82612a88565b612acf8683612a88565b95508019841693508086168417925050509392505050565b6000612b02612afd612af884612273565b6128ca565b612273565b9050919050565b6000819050919050565b612b1c83612ae7565b612b30612b2882612b09565b848454612a95565b825550505050565b600090565b612b45612b38565b612b50818484612b13565b505050565b5b81811015612b7457612b69600082612b3d565b600181019050612b56565b5050565b601f821115612bb957612b8a81612a63565b612b9384612a78565b81016020851015612ba2578190505b612bb6612bae85612a78565b830182612b55565b50505b505050565b600082821c905092915050565b6000612bdc60001984600802612bbe565b1980831691505092915050565b6000612bf58383612bcb565b9150826002028217905092915050565b612c0e826121c1565b67ffffffffffffffff811115612c2757612c266125b3565b5b612c318254612844565b612c3c828285612b78565b600060209050601f831160018114612c6f5760008415612c5d578287015190505b612c678582612be9565b865550612ccf565b601f198416612c7d86612a63565b60005b82811015612ca557848901518255600182019150602085019450602081019050612c80565b86831015612cc25784890151612cbe601f891682612bcb565b8355505b6001600288020188555050505b505050505050565b6000604082019050612cec6000830185612308565b612cf9602083018461241e565b9392505050565b7f4e487b7100000000000000000000000000000000000000000000000000000000600052601260045260246000fdfea26469706673582212209490510e078324cfe926667f75024ad0eb454560964ff1bcf52c0d9fde16b7f764736f6c634300081c0033",
  "linkReferences": {},
  "deployedLinkReferences": {}
}